:020000040800F2
:1000000000500020B9710008210400082D040008E8
:1000100033040008390400083F0400080000000011
:10002000000000000000000000000000450400087F
:1000300051040008000000005D0400086904000885
:1000400001720008017200080172000801720008C4
:1000500001720008017200080172000801720008B4
:1000600001720008017200080172000801720008A4
:100070000172000801720008017200080172000894
:100080000172000801720008017200080172000884
:10009000750400080172000801720008017200086E
:1000A0000172000801720008017200080172000864
:1000B0000172000801720008017200080172000854
:1000C0000172000801720008017200080172000844
:1000D0000172000801720008017200080172000834
:1000E000017200080172000801720008000000009F
:1000F0000000000000000000000000000000000000
:0C01000000000000000000005FF808F1A3
:10010C0010B5054C237833B9044B13B10448AFF345
:10011C0000800123237010BD7C0100200000000032
:10012C005C72000808B5034B1BB103490348AFF3DD
:10013C00008008BD00000000800100205C720008F7
:10014C0080B500AF00F0A0F900F007F800F096F8C9
:10015C0000F05EF806F0B4FBFEE780B594B000AF9B
:10016C0007F1280328220021184607F069F807F147
:10017C00140300221A605A609A60DA601A613B1DFF
:10018C0000221A605A609A60DA600123BB624FF455
:10019C008033FB6200233B630123BB6302237B643C
:1001AC004FF48033BB644FF48013FB6407F12803D6
:1001BC00184602F007F80346002B01D000F0A8F80F
:1001CC000F237B610223BB610023FB614FF480632F
:1001DC003B6200237B6207F114030121184602F0F5
:1001EC0073FA0346002B01D000F092F810237B60C9
:1001FC004FF480033B613B1D184602F0CDFB0346D8
:10020C00002B01D000F084F800BF5037BD4680BDF4
:10021C0080B500AF174B184A1A60164B4FF4827218
:10022C005A60144B00229A60124B0022DA60114B78
:10023C0000221A610F4B00225A610E4B4FF48022A0
:10024C009A610C4B0822DA610A4B00221A62094BA4
:10025C0000225A62074B00229A62064B0A22DA628B
:10026C00044802F04FFC0346002B01D000F050F87C
:10027C0000BF80BD980100200030014080B588B0DF
:10028C0000AF07F1100300221A605A609A60DA601E
:10029C001D4B9B691C4A43F0200393611A4B9B69CD
:1002AC0003F02003FB60FB68174B9B69164A43F075
:1002BC0004039361144B9B6903F00403BB60BB689C
:1002CC00114B9B69104A43F0080393610E4B9B69D9
:1002DC0003F008037B607B68002240210B4800F090
:1002EC00C7FB40233B6101237B610023BB610223DD
:1002FC00FB6107F110031946044800F035FA00BF02
:10030C002037BD4680BD00BF00100240000C0140EC
:10031C0080B400AF00BFBD4680BC704780B485B0D0
:10032C0000AF154B9B69144A43F001039361124BC8
:10033C009B6903F00103BB60BB680F4BDB690E4A82
:10034C0043F08053D3610C4BDB6903F080537B602B
:10035C007B680A4B5B68FB60FB6823F0E063FB6027
:10036C00FB6843F00073FB60044AFB68536000BFFA
:10037C001437BD4680BC704700100240000001409D
:10038C0080B588B000AF786007F1100300221A60C6
:10039C005A609A60DA607B681B681B4A93422FD1C3
:1003AC001A4B9B69194A43F480539361174B9B6911
:1003BC0003F48053FB60FB68144B9B69134A43F0B6
:1003CC0004039361114B9B6903F00403BB60BB688E
:1003DC00B0233B6102237B610323FB6107F1100314
:1003EC0019460B4800F0C0F940233B6100237B61A8
:1003FC000023BB6107F110031946054800F0B4F95E
:10040C0000BF2037BD4680BD0030014000100240C7
:10041C000008014080B400AF00BFBD4680BC7047EF
:10042C0080B400AFFEE780B400AFFEE780B400AF4D
:10043C00FEE780B400AFFEE780B400AF00BFBD465E
:10044C0080BC704780B400AF00BFBD4680BC704715
:10045C0080B400AF00BFBD4680BC704780B500AF14
:10046C0000F058F800BF80BD80B500AF024800F026
:10047C0048FC00BF80BD00BF8C0E002080B400AFD4
:10048C0000BFBD4680BC704780B500AF084B1B68F1
:10049C00074A43F010031360032000F023F90020F7
:1004AC0000F008F8FFF73AFF0023184680BD00BFA4
:1004BC000020024080B582B000AF7860124B1A6801
:1004CC00124B1B7819464FF47A73B3FBF1F3B2FB62
:1004DC00F3F3184600F03BF90346002B01D001233F
:1004EC000EE07B680F2B0AD8002279684FF0FF30A2
:1004FC0000F003F9064A7B681360002300E0012337
:10050C0018460837BD4680BD0000002008000020BA
:10051C000400002080B400AF054B1B781A46054B35
:10052C001B681344034A136000BFBD4680BC704770
:10053C0008000020F001002080B400AF024B1B68C3
:10054C001846BD4680BC7047F001002080B485B0D1
:10055C0000AF78607B6803F00703FB600C4BDB6833
:10056C00BB60BA684FF6FF031340BB60FB681A020E
:10057C00BB68134343F0BF6343F40033BB60044ACE
:10058C00BB68D36000BF1437BD4680BC704700BF4A
:10059C0000ED00E080B400AF044BDB681B0A03F0F5
:1005AC0007031846BD4680BC704700BF00ED00E055
:1005BC0080B483B000AF0346FB7197F90730002B72
:1005CC000BDBFB7903F01F02064997F907305B0937
:1005DC00012000FA02F241F8232000BF0C37BD467F
:1005EC0080BC704700E100E080B483B000AF0346EC
:1005FC003960FB7197F90730002B0ADB3B68DAB2E4
:10060C000C4997F907301201D2B20B4483F800233E
:10061C000AE03B68DAB20849FB7903F00F03043BAC
:10062C001201D2B20B441A7600BF0C37BD4680BC07
:10063C00704700BF00E100E000ED00E080B489B03D
:10064C0000AFF860B9607A60FB6803F00703FB61E8
:10065C00FB69C3F10703042B28BF0423BB61FB69AF
:10066C000433062B02D9FB69033B00E000237B61BA
:10067C004FF0FF32BB6902FA03F3DA43BB681A404E
:10068C007B699A404FF0FF317B6901FA03F3D94340
:10069C007B680B40134318462437BD4680BC70471B
:1006AC0080B582B000AF78607B68013BB3F1807F8E
:1006BC0001D301230FE00A4A7B68013B53600F21F1
:1006CC004FF0FF30FFF790FF054B00229A60044B70
:1006DC0007221A60002318460837BD4680BD00BFAC
:1006EC0010E000E080B582B000AF78607868FFF76A
:1006FC002DFF00BF0837BD4680BD80B586B000AF6A
:10070C000346B9607A60FB7300237B61FFF742FFFD
:10071C0078617A68B9687869FFF790FF024697F9B3
:10072C000F3011461846FFF75FFF00BF1837BD4664
:10073C0080BD80B582B000AF0346FB7197F90730DE
:10074C001846FFF735FF00BF0837BD4680BD80B5A2
:10075C0082B000AF78607868FFF7A2FF03461846B6
:10076C000837BD4680BD000080B48BB000AF786008
:10077C00396000237B6200233B6269E101227B6AC2
:10078C0002FA03F3FB613B681B68FA691340BB6117
:10079C00BA69FB699A4240F058813B685B689A4A97
:1007AC0093425ED0984A934275D8984A934258D057
:1007BC00964A93426FD8964A934252D0944A9342A7
:1007CC0069D8944A93424CD0924A934263D8924A45
:1007DC00934246D0904A93425DD8122B2AD8122BC2
:1007EC0059D801A252F823F06F08000849080008F4
:1007FC005B0800089D080008A3080008A30800086F
:10080C00A3080008A3080008A3080008A308000810
:10081C00A3080008A3080008A3080008A308000800
:10082C00A3080008A3080008A30800085108000842
:10083C0065080008794A934213D02CE03B68DB68CA
:10084C003B6229E03B68DB6804333B6224E03B6895
:10085C00DB6808333B621FE03B68DB680C333B62B0
:10086C001AE03B689B68002B02D104233B6213E027
:10087C003B689B68012B05D108233B627B68FA69B6
:10088C001A6109E008233B627B68FA695A6103E04C
:10089C0000233B6200E000BFBB69FF2B01D87B68E3
:1008AC0001E07B6804337B61BB69FF2B02D87B6A58
:1008BC009B0002E07B6A083B9B003B617B691A68EA
:1008CC000F213B6901FA03F3DB431A40396A3B6998
:1008DC0001FA03F31A437B691A603B685B6803F007
:1008EC008053002B00F0B1804D4B9B694C4A43F078
:1008FC00010393614A4B9B6903F00103BB60BB6826
:10090C00484A7B6A9B08023352F82330FB607B6AAF
:10091C0003F003039B000F2202FA03F3DB43FA6894
:10092C001340FB607B68404A934213D07B683F4A7C
:10093C0093420DD07B683E4A934207D07B683D4A78
:10094C00934201D1032306E0042304E0022302E0D6
:10095C00012300E000237A6A02F003029200934024
:10096C00FA681343FB602F497B6A9B080233FA68D1
:10097C0041F823203B685B6803F48033002B06D0DE
:10098C002D4B1A682C49BB6913430B6006E02A4BAC
:10099C001A68BB69DB43284913400B603B685B68F2
:1009AC0003F40033002B06D0234B5A682249BB6951
:1009BC0013434B6006E0204B5A68BB69DB431E496E
:1009CC0013404B603B685B6803F48013002B06D02C
:1009DC00194B9A681849BB6913438B6006E0164B98
:1009EC009A68BB69DB43144913408B603B685B68B6
:1009FC0003F40013002B21D00F4BDA680E49BB69AE
:100A0C001343CB6021E000BF000032100000311016
:100A1C000000221000002110000012100000111024
:100A2C00001002400000014000080140000C014091
:100A3C000010014000140140000401400B4BDA6827
:100A4C00BB69DB4309491340CB607B6A01337B6292
:100A5C003B681A687B6A22FA03F3002B7FF48EAE94
:100A6C0000BF00BF2C37BD4680BC7047000401405E
:100A7C0080B483B000AF78600B467B8013467B70EC
:100A8C007B78002B03D07A887B681A6103E07B8823
:100A9C001A047B681A6100BF0C37BD4680BC7047D6
:100AAC00F0B58BB006AF78607B68002B01D10123C9
:100ABC00FDE07B6893F8A932DBB2002B06D17B6892
:100ACC00002283F8A822786806F0C6F87B68032217
:100ADC0083F8A9227B681B68184602F09AF87B6899
:100AEC001B683B607E686D4606F110040FCC0FC589
:100AFC0023682B60331D0ECB386802F064F8034674
:100B0C00002B05D07B68022283F8A9220123CEE0BA
:100B1C007B681B680021184602F095F80023FB73D4
:100B2C004CE0FB7B79685A1C13469B001344DB009A
:100B3C000B44013301221A70FB7B79685A1C134653
:100B4C009B001344DB000B44FA7B1A70FA7BFB7B93
:100B5C0098B2796813469B001344DB000B44363380
:100B6C0002461A80FB7B79685A1C13469B0013447F
:100B7C00DB000B44033300221A70FA7B79681346AE
:100B8C009B001344DB000B44383300221A60FA7BC1
:100B9C00796813469B001344DB000B443C33002262
:100BAC001A60FA7B796813469B001344DB000B44F4
:100BBC00403300221A60FB7B0133FB73FA7B7B68AA
:100BCC005B689A42ADD30023FB7344E0FA7B7968EF
:100BDC0013469B001344DB000B4403F26913002201
:100BEC001A70FA7B796813469B001344DB000B44A4
:100BFC0003F5B473FA7B1A70FA7B796813469B0081
:100C0C001344DB000B4403F26B1300221A70FA7BC3
:100C1C00796813469B001344DB000B4403F5BC734B
:100C2C0000221A60FA7B796813469B001344DB00A0
:100C3C000B4403F5BE7300221A60FA7B79681346E5
:100C4C009B001344DB000B4403F5C07300221A60B5
:100C5C00FB7B0133FB73FA7B7B685B689A42B5D3F1
:100C6C007B681B683B607E686D4606F110040FCCF8
:100C7C000FC523682B60331D0ECB386801F0EFFFD6
:100C8C000346002B05D07B68022283F8A92201239E
:100C9C000DE07B68002283F824207B68012283F816
:100CAC00A9227B681B68184604F011FA0023184629
:100CBC001437BD46F0BD80B582B000AF78607B685C
:100CCC0093F8A832012B01D1022316E07B68012294
:100CDC0083F8A8227B681B68184601F084FF012169
:100CEC00786806F02CFA7B681B68184604F0E5F966
:100CFC007B68002283F8A822002318460837BD46DB
:100D0C0080BD80B588B000AF78607B681B681846E2
:100D1C0004F0E7F9034603F40043B3F5004F02D1A6
:100D2C00786800F061FB7B681B68184604F0D9F901
:100D3C00034603F48063B3F5806F12D17B681B68A4
:100D4C00B3F844309AB27B681B6822F4806292B28A
:100D5C00A3F84420786805F0FAFF0021786800F0C9
:100D6C0025F97B681B68184604F0BBF9034603F4AD
:100D7C008043B3F5804F0BD17B681B68B3F84430CC
:100D8C009AB27B681B6822F4804292B2A3F844208A
:100D9C007B681B68184604F0A4F9034603F400535F
:100DAC00B3F5005F0BD17B681B68B3F844309AB283
:100DBC007B681B6822F4005292B2A3F844207B6833
:100DCC001B68184604F08DF9034603F48053B3F501
:100DDC00805F26D17B681B68B3F840309AB27B6881
:100DEC001B6822F0040292B2A3F840207B681B68B7
:100DFC00B3F840309AB27B681B6822F0080292B2BA
:100E0C00A3F84020786805F0DBFF7B681B68B3F81B
:100E1C0044309AB27B681B6822F4805292B2A3F8D9
:100E2C0044207B681B68184604F05BF9034603F406
:100E3C000063B3F5006F40F084800023FB7711E072
:100E4C007B681B681A46FB7F9B001A44FB7F128849
:100E5C0092B25B0007F120010B4423F8142CFB7FAA
:100E6C000133FB77FB7F072BEAD97B681B68B3F850
:100E7C0040309AB27B681B6842F0010292B2A3F830
:100E8C0040207B681B68B3F840309AB27B681B68C3
:100E9C0022F0010292B2A3F8402000BF7B681B68CD
:100EAC00B3F844309BB203F48063002BF6D07B681C
:100EBC001B68B3F844309AB27B681B6822F48062DA
:100ECC0092B2A3F844200023FB7710E0FB7F7A68F2
:100EDC0012681146FA7F92000A445B0007F1200168
:100EEC000B4433F8143C1380FB7F0133FB77FB7FFF
:100EFC00072BEBD97B681B68B3F840309AB27B6840
:100F0C001B6842F0080292B2A3F840207B681B6871
:100F1C00B3F844309AB27B681B6822F4006292B238
:100F2C00A3F844207B681B68B3F840309AB27B6806
:100F3C001B6842F0040292B2A3F84020786805F0D6
:100F4C0025FF7B681B68184604F0CBF8034603F4B6
:100F5C000073B3F5007F0ED17B681B68B3F8443087
:100F6C009AB27B681B6822F4007292B2A3F84420F8
:100F7C00786805F0DEFE7B681B68184604F0B1F853
:100F8C00034603F48073B3F5807F0BD17B681B6839
:100F9C00B3F844309AB27B681B6822F4807292B228
:100FAC00A3F8442000BF2037BD4680BD80B582B079
:100FBC0000AF78600B46FB707B6893F8A832012B6E
:100FCC0001D1022313E07B68012283F8A8227B68FD
:100FDC00FA7883F824207B681B68FA781146184647
:100FEC0004F058F87B68002283F8A82200231846E6
:100FFC000837BD4680BD80B584B000AF7860084628
:10100C0011461A460346FB700B463B801346BB70D9
:10101C000023FB7297F90330002B0EDAFB7803F0F8
:10102C0007035A1C13469B001344DB007A681344D5
:10103C00FB60FB6801225A700EE0FB7803F007029C
:10104C0013469B001344DB0003F5B4737A68134416
:10105C00FB60FB6800225A70FB7803F00703DAB2DE
:10106C00FB681A703A88FB681A61FB68BA78DA7008
:10107C00FB685B78002B04D0FB681B789AB2FB688A
:10108C00DA81BB78022B02D1FB6800221A717B68D3
:10109C0093F8A832012B01D102230EE07B680122C8
:1010AC0083F8A8227B681B68F968184601F0F8FDE4
:1010BC007B68002283F8A822FB7A18461037BD46BD
:1010CC0080BD80B584B000AF78600B46FB7097F99B
:1010DC000330002B0EDAFB7803F007035A1C13467F
:1010EC009B001344DB007A681344FB60FB6801220D
:1010FC005A700EE0FB7803F0070213469B00134472
:10110C00DB0003F5B4737A681344FB60FB680022C0
:10111C005A70FB7803F00703DAB2FB681A707B682D
:10112C0093F8A832012B01D102230EE07B68012237
:10113C0083F8A8227B681B68F968184602F01AF934
:10114C007B68002283F8A822002318461037BD467E
:10115C0080BD80B586B000AFF8607A603B600B460E
:10116C00FB72FB7A03F0070213469B001344DB006F
:10117C0003F5B473FA6813447B617B697A685A612E
:10118C007B693A689A617B690022DA617B6900228B
:10119C005A70FB7A03F00703DAB27B691A70FB7A98
:1011AC0003F00703002B06D1FB681B68796918460E
:1011BC0002F0CCFA05E0FB681B687969184602F06E
:1011CC00C5FA002318461837BD4680BD80B483B0DD
:1011DC0000AF78600B46FB70FB7803F00702796870
:1011EC0013469B001344DB000B4403F5C2731B68CE
:1011FC0018460C37BD4680BC704780B586B000AF32
:10120C00F8607A603B600B46FB72FB7A03F00703D5
:10121C005A1C13469B001344DB00FA6813447B6191
:10122C007B697A685A617B693A689A617B690122A9
:10123C0083F824207B693A681A627B690022DA61A0
:10124C007B6901225A70FB7A03F00703DAB27B69DF
:10125C001A70FB7A03F00703002B06D1FB681B689E
:10126C007969184602F072FA05E0FB681B68796927
:10127C00184602F06BFA002318461837BD4680BD9D
:10128C0080B584B000AF78600B46FB70FB7803F040
:10129C0007027B685B689A4201D901234CE097F9FD
:1012AC000330002B0EDAFB7803F007035A1C1346AD
:1012BC009B001344DB007A681344FB60FB6801223B
:1012CC005A700CE0FA7813469B001344DB0003F5CC
:1012DC00B4737A681344FB60FB6800225A70FB6895
:1012EC0001229A70FB7803F00703DAB2FB681A70DC
:1012FC007B6893F8A832012B01D102231CE07B6898
:10130C00012283F8A8227B681B68F968184603F051
:10131C00C4FDFB7803F00703002B08D17B681A6827
:10132C007B6803F52C731946104603F0E9FE7B68C5
:10133C00002283F8A822002318461037BD4680BD32
:10134C0080B584B000AF78600B46FB70FB7803F07F
:10135C000F027B685B689A4201D9012340E097F940
:10136C000330002B0EDAFB7803F007035A1C1346EC
:10137C009B001344DB007A681344FB60FB6801227A
:10138C005A700EE0FB7803F0070213469B001344DF
:10139C00DB0003F5B4737A681344FB60FB6800222E
:1013AC005A70FB6800229A70FB7803F00703DAB2DC
:1013BC00FB681A707B6893F8A832012B01D10223C9
:1013CC000EE07B68012283F8A8227B681B68F96811
:1013DC00184603F0B2FD7B68002283F8A822002394
:1013EC0018461037BD4680BD80B58EB000AF786012
:1013FC00DFE27B681B68B3F84430FB85FB8DDBB206
:10140C0003F00F0387F82D3097F82D30002B40F0A8
:10141C005881FB8D03F01003002B52D17B681B68A5
:10142C001B889BB223F4E14323F07003FB817B68A0
:10143C001A68FB896FEA43436FEA53439BB21380EC
:10144C007B6828337B627B681B68B3F850309BB297
:10145C001A467B6A1B78DB00134402335B007A6804
:10146C001268134403F580631B88C3F309027B6A7B
:10147C00DA617B6A5A697B6ADB691A447B6A5A6156
:10148C000021786805F03BFC7B6893F82430DBB2D4
:10149C00002B00F08E827B6A9B69002B40F08982C6
:1014AC007B6893F82430DBB263F07F03DAB27B689D
:1014BC001B6892B2A3F84C207B68002283F824208E
:1014CC0077E27B6803F5B4737B627B681B681B88CF
:1014DC007B857B8D03F40063002B34D07B681B6809
:1014EC00B3F850309BB21A467B6A1B78DB0013446E
:1014FC0006335B007A681268134403F580631B881B
:10150C00C3F309027B6ADA617B6818687B6803F5B0
:10151C002C717B6ADA887B6ADB699BB203F040FE34
:10152C007B681B681B889AB240F68F7313403B8212
:10153C007B681B683A8A42F0800292B21A80786803
:10154C0005F0B0FB35E2B7F92A30002B80F231827E
:10155C007B681B681B889AB240F68F731340BB8361
:10156C007B681B68BA8B42F0800292B21A807B684F
:10157C001B68B3F850309BB21A467B6A1B78DB00B1
:10158C00134406335B007A681268134403F58063D6
:10159C001B88C3F309027B6ADA617B6ADB69002B67
:1015AC0019D07B6A5B69002B15D07B6818687B6A45
:1015BC0059697B6ADA887B6ADB699BB203F0F0FDC0
:1015CC007B6A5A697B6ADB691A447B6A5A6100211F
:1015DC00786805F079FB7B681B68BB617B681B68CE
:1015EC00B3F850309BB21A46BB691344BB61BB695C
:1015FC0003F20C437B617B6A1B69002B12D17B6964
:10160C001B889BB223F4F8439AB27B691A807B69DE
:10161C001B889BB26FEA43436FEA53439AB27B69D0
:10162C001A802FE07B6A1B693E2B13D87B6A1B69DF
:10163C005B083B637B6A1B6903F00103002B02D040
:10164C003B6B01333B633B6B9BB29B029AB27B6956
:10165C001A8017E07B6A1B695B093B637B6A1B6919
:10166C0003F01F03002B02D13B6B013B3B633B6B35
:10167C009BB29B029BB26FEA43436FEA53439AB20D
:10168C007B691A807B681B681B889BB223F48043A0
:10169C0023F070037B827B8A83F480537B827B8A6A
:1016AC0083F400537B827B681A687B8A43F07F4308
:1016BC0043F47F0343F4004343F080039BB2138055
:1016CC0077E17B681B681A4697F82D309B00134412
:1016DC001B887B85B7F92A30002B80F2EA807B6867
:1016EC001B681A4697F82D309B0013441B889AB23E
:1016FC0040F68F7313403B857B681B681A4697F83E
:10170C002D309B0013443A8D42F0800292B21A8025
:10171C0097F82D2013469B001344DB0003F5B4739C
:10172C007A6813447B627B6A1B7B002B22D17B681B
:10173C001B68B3F850309BB21A467B6A1B78DB00EF
:10174C00134406335B007A681268134403F5806314
:10175C001B88C3F30903FB86FB8E002B00F08780EC
:10176C007B6818687B6A59697B6ADA88FB8E03F0A0
:10177C0017FD7CE07B6ADB78022B08D17B8D1A4647
:10178C00796A786800F023F90346FB866FE07B6882
:10179C001B681A467B6A1B789B0013441B889BB200
:1017AC0023F4E04323F070037B847B681B681A46A8
:1017BC007B6A1B789B001A447B8C43F07F4343F479
:1017CC007F0343F4004343F0C0039BB213807B6858
:1017DC001B681A467B6A1B789B0013441B889BB2C0
:1017EC0003F48043002B21D07B681B68B3F8503086
:1017FC009BB21A467B6A1B78DB00134402335B00F6
:10180C007A681268134403F580631B88C3F30903D9
:10181C00FB86FB8E002B2AD07B6818687B6A596983
:10182C007B6A1A89FB8E03F0BBFC20E07B681B688B
:10183C00B3F850309BB21A467B6A1B78DB0013441A
:10184C0006335B007A681268134403F580631B88C7
:10185C00C3F30903FB86FB8E002B08D07B6818684A
:10186C007B6A59697B6A5A89FB8E03F099FC7B6A07
:10187C00DA69FB8E1A447B6ADA617B6A5A69FB8EE1
:10188C001A447B6A5A617B6A9B69002B04D0FA8EDE
:10189C007B6A1B699A4206D27B6A1B781946786868
:1018AC0005F012FA05E07B681B68796A184601F0AE
:1018BC004DFF7B8D03F08003002B7AD097F82D30F1
:1018CC005A1C13469B001344DB007A6813447B625A
:1018DC007B681B681A4697F82D309B0013441B88B5
:1018EC009BB223F4E14323F070033B847B681B68B9
:1018FC001A4697F82D309B001A443B8C6FEA4343F1
:10190C006FEA53439BB213807B6ADB78022B08D1BE
:10191C007B6ADB78022B46D17B8D03F48073002B22
:10192C0041D17B681B68B3F850309BB21A467B6A76
:10193C001B78DB00134402335B007A681268134493
:10194C0003F580631B88C3F30903FB837B6A9A69E5
:10195C00FB8B9A4206D97B6A9A69FB8BD21A7B6AFB
:10196C009A6102E07B6A00229A617B6A9B69002B78
:10197C0006D17B6A1B781946786805F0C0F918E027
:10198C007B6A5A69FB8B1A447B6A5A617B6ADA69F7
:10199C00FB8B1A447B6ADA617B681B68796A184690
:1019AC0001F0D4FE05E07B8D1A46796A786800F068
:1019BC001BF97B681B68B3F844309BB21BB2002B3D
:1019CC00FFF617AD002318463837BD4680BD80B5ED
:1019DC0088B000AFF860B9601346FB80FB8803F455
:1019EC008043002B7ED0FB681B68B3F850309BB251
:1019FC001A46BB681B78DB00134402335B00FA68A1
:101A0C001268134403F580631B88C3F309037B83BB
:101A1C00BB689A697B8B9A4206D3BB689A697B8BAD
:101A2C00D21ABB689A6102E0BB6800229A61BB685B
:101A3C009B69002B23D1FB681B681A46BB681B787B
:101A4C009B0013441B889BB223F4804323F0700348
:101A5C003B833B8B83F400533B83FB681B681A4628
:101A6C00BB681B789B001A443B8B43F07F4343F4C9
:101A7C007F0343F4004343F080039BB21380FB8845
:101A8C0003F04003002B1FD0FB681B681A46BB6891
:101A9C001B789B0013441B889BB223F4E04323F078
:101AAC007003FB82FB681B681A46BB681B789B00A3
:101ABC001A44FB8A43F07F4343F47F0343F400430F
:101ACC0043F0C0039BB213807B8B002B00F087800C
:101ADC00FB681868BB685969BB681A897B8B03F073
:101AEC005FFB7CE0FB681B68B3F850309BB21A4676
:101AFC00BB681B78DB00134406335B00FA68126882
:101B0C00134403F580631B88C3F309037B83BB6811
:101B1C009A697B8B9A4206D3BB689A697B8BD21AE3
:101B2C00BB689A6102E0BB6800229A61BB689B6942
:101B3C00002B23D1FB681B681A46BB681B789B00E3
:101B4C0013441B889BB223F4804323F07003FB8364
:101B5C00FB8B83F40053FB83FB681B681A46BB6842
:101B6C001B789B001A44FB8B43F07F4343F47F03A9
:101B7C0043F4004343F080039BB21380FB8803F0D3
:101B8C004003002B1FD1FB681B681A46BB681B78EF
:101B9C009B0013441B889BB223F4E04323F0700397
:101BAC00BB83FB681B681A46BB681B789B001A44F6
:101BBC00BB8B43F07F4343F47F0343F4004343F078
:101BCC00C0039BB213807B8B002B08D0FB6818687A
:101BDC00BB685969BB685A897B8B03F0E1FA7B8B34
:101BEC0018462037BD4680BD80B594B000AFF86074
:101BFC00B9601346FB80FB8803F04003002B00F018
:101C0C003881FB681B68B3F850309BB21A46BB682E
:101C1C001B78DB00134402335B00FA681268134430
:101C2C0003F580631B88C3F30903A7F84830BB682E
:101C3C009A69B7F848309A4207D9BB689A69B7F8DD
:101C4C004830D21ABB689A6102E0BB6800229A61E4
:101C5C00BB689B69002B2CD1BB681B781946F868B4
:101C6C0005F04DF8FB8803F48043002B00F03A821A
:101C7C00FB681B681A46BB681B789B0013441B88C7
:101C8C009BB223F4E04323F07003FB82FB681B68D8
:101C9C001A46BB681B789B001A44FB8A43F07F43AF
:101CAC0043F47F0343F4404343F080039BB213801F
:101CBC0018E2FB8803F48043002B1FD0FB681B68E1
:101CCC001A46BB681B789B0013441B889BB223F4F9
:101CDC00E04323F070037B85FB681B681A46BB68E6
:101CEC001B789B001A447B8D43F07F4343F47F03A6
:101CFC0043F4404343F080039BB21380BB6893F8DA
:101D0C002430012B40F0EE81BB685A69B7F848309B
:101D1C001A44BB685A61BB68DA69B7F848301A4490
:101D2C00BB68DA61BB681A6ABB681B699A4209D343
:101D3C00BB681B697B64BB681A6A7B6CD21ABB6874
:101D4C001A6215E0BB681B6A002B07D1B7F8483044
:101D5C007B64BB68002283F8242009E0BB68002266
:101D6C0083F82420BB681B6A7B64BB6800221A6260
:101D7C00BB685B78002B55D1FB681B68FB61FB686B
:101D8C001B68B3F850309BB21A46FB691344FB61D5
:101D9C00BB681B781A01FB69134403F20443BB6153
:101DAC007B6C002B12D1BB691B889BB223F4F843CC
:101DBC009AB2BB691A80BB691B889BB26FEA43431A
:101DCC006FEA53439AB2BB691A8047E07B6C3E2B97
:101DDC0011D87B6C5B08FB627B6C03F00103002B5E
:101DEC0002D0FB6A0133FB62FB6A9BB29B029AB284
:101DFC00BB691A8032E07B6C5B09FB627B6C03F085
:101E0C001F03002B02D1FB6A013BFB62FB6A9BB2F6
:101E1C009B029BB26FEA43436FEA53439AB2BB698E
:101E2C001A801BE0BB685B78012B17D1FB681B6821
:101E3C007B62FB681B68B3F850309BB21A467B6A16
:101E4C0013447B62BB681B781A017B6A134403F250
:101E5C0004433B627B6C9AB23B6A1A80FB6818683D
:101E6C00BB685969BB681A897B6C9BB203F053F948
:101E7C0038E1FB681B68B3F850309BB21A46BB685C
:101E8C001B78DB00134406335B00FA6812681344BA
:101E9C0003F580631B88C3F30903A7F84830BB68BC
:101EAC009A69B7F848309A4207D3BB689A69B7F871
:101EBC004830D21ABB689A6102E0BB6800229A6172
:101ECC00BB689B69002B2ED1BB681B781946F86840
:101EDC0004F015FFFB8803F48043002B40F00281D3
:101EEC00FB681B681A46BB681B789B0013441B8855
:101EFC009BB223F4E04323F07003A7F84A30FB684D
:101F0C001B681A46BB681B789B001A44B7F84A300A
:101F1C0043F07F4343F47F0343F4404343F0800397
:101F2C009BB21380DEE0FB8803F48043002B1FD1AF
:101F3C00FB681B681A46BB681B789B0013441B8804
:101F4C009BB223F4E04323F070037B86FB681B6891
:101F5C001A46BB681B789B001A447B8E43F07F4368
:101F6C0043F47F0343F4404343F080039BB213805C
:101F7C00BB6893F82430012B40F0B480BB685A69DD
:101F8C00B7F848301A44BB685A61BB68DA69B7F8CD
:101F9C0048301A44BB68DA61BB681A6ABB681B69B3
:101FAC009A4209D3BB681B697B64BB681A6A7B6C59
:101FBC00D21ABB681A6215E0BB681B6A002B07D1EA
:101FCC00B7F848307B64BB68002283F8242009E012
:101FDC00BB681B6A7B64BB6800221A62BB68002268
:101FEC0083F82420FB681B683B64BB685B78002B80
:101FFC0055D1FB681B68BB63FB681B68B3F850309A
:10200C009BB21A46BB6B1344BB63BB681B781A01AB
:10201C00BB6B134403F20C437B637B6C002B12D120
:10202C007B6B1B889BB223F4F8439AB27B6B1A80B0
:10203C007B6B1B889BB26FEA43436FEA53439AB2A4
:10204C007B6B1A8044E07B6C3E2B11D87B6C5B085D
:10205C00FB647B6C03F00103002B02D0FB6C01339F
:10206C00FB64FB6C9BB29B029AB27B6B1A802FE0D9
:10207C007B6C5B09FB647B6C03F01F03002B02D1B0
:10208C00FB6C013BFB64FB6C9BB29B029BB26FEA4B
:10209C0043436FEA53439AB27B6B1A8018E0BB68D8
:1020AC005B78012B14D1FB681B68B3F850309BB2E2
:1020BC001A463B6C13443B64BB681B781A013B6C9F
:1020CC00134403F20C43FB637B6C9AB2FB6B1A80D8
:1020DC00FB681868BB685969BB685A897B6C9BB2F2
:1020EC0003F019F8FB681B681A46BB681B789B0049
:1020FC0013441B889BB223F4E04323F04003BB82C0
:10210C00BB8A83F01003BB82BB8A83F02003BB82A3
:10211C00FB681B681A46BB681B789B001A44BB8A79
:10212C0043F07F4343F47F0343F4004343F08003C5
:10213C009BB21380002318465037BD4680BD80B437
:10214C0087B000AFF8607B600B467B8113463B8108
:10215C007B8903F080039BB2002B0BD07B8903F0AF
:10216C0007035A1C13469B001344DB00FA68134404
:10217C007B6109E07A8913469B001344DB0003F56D
:10218C00B473FA6813447B613B89002B07D17B69DC
:10219C0000221A737B689AB27B69DA800BE07B6948
:1021AC0001221A737B689AB27B691A817B681B0CBB
:1021BC009AB27B695A81002318461C37BD4680BCF5
:1021CC007047000080B586B000AF78607B68002B4C
:1021DC0001D1012372E27B681B6803F00103002B21
:1021EC0000F08780924B5B6803F00C03042B0CD03F
:1021FC008F4B5B6803F00C03082B12D18C4B5B6884
:10220C0003F48033B3F5803F0BD1894B1B6803F487
:10221C000033002B6CD07B685B68002B68D10123EA
:10222C004CE27B685B68B3F5803F06D1804B1B6842
:10223C007F4A43F4803313602EE07B685B68002B8D
:10224C000CD17B4B1B687A4A23F480331360784B98
:10225C001B68774A23F4802313601DE07B685B685E
:10226C00B3F5A02F0CD1724B1B68714A43F4802339
:10227C0013606F4B1B686E4A43F4803313600BE0A2
:10228C006B4B1B686A4A23F480331360684B1B68E2
:10229C00674A23F4802313607B685B68002B13D0A0
:1022AC00FEF74AF9386108E0FEF746F902463B6949
:1022BC00D31A642B01D9032300E25D4B1B6803F492
:1022CC000033002BF0D014E0FEF736F9386108E04B
:1022DC00FEF732F902463B69D31A642B01D903236A
:1022EC00ECE1534B1B6803F40033002BF0D100E0FE
:1022FC0000BF7B681B6803F00203002B63D04C4BC0
:10230C005B6803F00C03002B0BD0494B5B6803F0AC
:10231C000C03082B1CD1464B5B6803F48033002B59
:10232C0016D1434B1B6803F00203002B05D07B68CE
:10233C001B69012B01D00123C0E13D4B1B6823F02D
:10234C00F8027B685B69DB00394913430B603AE0A8
:10235C007B681B69002B20D0364B01221A60FEF7DC
:10236C00EBF8386108E0FEF7E7F802463B69D31A50
:10237C00022B01D90323A1E12D4B1B6803F00203AF
:10238C00002BF0D02A4B1B6823F0F8027B685B69AA
:10239C00DB00274913430B6015E0264B00221A6023
:1023AC00FEF7CAF8386108E0FEF7C6F802463B694A
:1023BC00D31A022B01D9032380E11D4B1B6803F0B8
:1023CC000203002BF0D17B681B6803F00803002B81
:1023DC003AD07B689B69002B19D0174B01221A60ED
:1023EC00FEF7AAF8386108E0FEF7A6F802463B694A
:1023FC00D31A022B01D9032360E10D4B5B6A03F066
:10240C000203002BF0D0012000F0A8FA1CE00A4BCC
:10241C0000221A60FEF790F838610FE0FEF78CF896
:10242C0002463B69D31A022B08D9032346E100BFAD
:10243C00001002400000424280044242924B5B6A10
:10244C0003F00203002BE9D17B681B6803F0040343
:10245C00002B00F0A6800023FB758B4BDB6903F08F
:10246C008053002B0DD1884BDB69874A43F0805396
:10247C00D361854BDB6903F08053BB60BB680123E0
:10248C00FB75824B1B6803F48073002B18D17F4BB8
:10249C001B687E4A43F480731360FEF74DF8386175
:1024AC0008E0FEF749F802463B69D31A642B01D9C0
:1024BC00032303E1754B1B6803F48073002BF0D0EE
:1024CC007B68DB68012B06D16F4B1B6A6E4A43F0AD
:1024DC00010313622DE07B68DB68002B0CD16A4B87
:1024EC001B6A694A23F001031362674B1B6A664A35
:1024FC0023F0040313621CE07B68DB68052B0CD112
:10250C00614B1B6A604A43F0040313625E4B1B6A07
:10251C005D4A43F0010313620BE05B4B1B6A5A4AA2
:10252C0023F001031362584B1B6A574A23F0040330
:10253C0013627B68DB68002B15D0FDF7FDFF38615B
:10254C000AE0FDF7F9FF02463B69D31A41F28832E3
:10255C00934201D90323B1E04B4B1B6A03F00203F6
:10256C00002BEED014E0FDF7E7FF38610AE0FDF731
:10257C00E3FF02463B69D31A41F28832934201D9F8
:10258C0003239BE0404B1B6A03F00203002BEED1AC
:10259C00FB7D012B05D13C4BDB693B4A23F080537F
:1025AC00D3617B68DB69002B00F08780364B5B685E
:1025BC0003F00C03082B61D07B68DB69022B46D13E
:1025CC00334B00221A60FDF7B7FF386108E0FDF7C6
:1025DC00B3FF02463B69D31A022B01D903236DE0EA
:1025EC00294B1B6803F00073002BF0D17B681B6A2E
:1025FC00B3F5803F08D1244B5B6823F400327B6831
:10260C009B68214913434B601F4B5B6823F4741286
:10261C007B68196A7B685B6A0B431B4913434B60ED
:10262C001B4B01221A60FDF787FF386108E0FDF7AC
:10263C0083FF02463B69D31A022B01D903233DE0E9
:10264C00114B1B6803F00073002BF0D035E0104BDE
:10265C0000221A60FDF770FF386108E0FDF76CFF8F
:10266C0002463B69D31A022B01D9032326E0064B01
:10267C001B6803F00073002BF0D11EE07B68DB6954
:10268C00012B07D1012319E000100240007000401B
:10269C00600042420B4B5B68FB60FB6803F48032CA
:1026AC007B681B6A9A4206D1FB6803F470127B6844
:1026BC005B6A9A4201D0012300E0002318461837C8
:1026CC00BD4680BD0010024080B584B000AF78607C
:1026DC0039607B68002B01D10123D0E06A4B1B6869
:1026EC0003F007033A689A4210D9674B1B6823F032
:1026FC00070265493B6813430B60634B1B6803F08F
:10270C0007033A689A4201D00123B8E07B681B6842
:10271C0003F00203002B20D07B681B6803F004033A
:10272C00002B05D0594B5B68584A43F4E063536067
:10273C007B681B6803F00803002B05D0534B5B68C8
:10274C00524A43F460535360504B5B6823F0F002E1
:10275C007B689B684D4913434B607B681B6803F097
:10276C000103002B40D07B685B68012B07D1474BE2
:10277C001B6803F40033002B15D101237FE07B6829
:10278C005B68022B07D1414B1B6803F00073002BD5
:10279C0009D1012373E03D4B1B6803F00203002BAE
:1027AC0001D101236BE0394B5B6823F003027B689A
:1027BC005B68364913434B60FDF7BEFEF8600AE0D8
:1027CC00FDF7BAFE0246FB68D31A41F288329342F7
:1027DC0001D9032353E02D4B5B6803F00C027B689B
:1027EC005B689B009A42EBD1274B1B6803F00703F5
:1027FC003A689A4210D2244B1B6823F007022249F4
:10280C003B6813430B60204B1B6803F007033A68CB
:10281C009A4201D0012332E07B681B6803F0040369
:10282C00002B08D0194B5B6823F4E0627B68DB68F3
:10283C00164913434B607B681B6803F00803002B9D
:10284C0009D0124B5B6823F460527B681B69DB0078
:10285C000E4913434B6000F021F802460B4B5B68AA
:10286C001B0903F00F030A49CB5C22FA03F3094A54
:10287C001360094B1B681846FDF71CFE0023184615
:10288C001037BD4680BD00BF002002400010024042
:10289C00CC720008000000200400002090B48AB024
:1028AC0000AF2A4B3C1D0FCB84E80F0040F20123F4
:1028BC003B800023FB610023BB6100237B62002370
:1028CC007B6100233B62224B5B68FB61FB6903F07D
:1028DC000C03042B02D0082B03D02DE01D4B3B62C4
:1028EC002DE0FB699B0C03F00F0307F12802134446
:1028FC0013F8243C7B61FB6903F48033002B13D069
:10290C00134B5B685B0C03F0010307F128021344C3
:10291C0013F8283CBB617B690E4A03FB02F2BB69CE
:10292C00B2FBF3F37B6204E07B690B4A02FB03F31B
:10293C007B627B6A3B6202E0064B3B6200BF3B6AF8
:10294C0018462837BD4690BC704700BF747200080B
:10295C000010024000127A0000093D0080B485B0DE
:10296C0000AF78600A4B1B680A4AA2FB03235B0A80
:10297C007A6802FB03F3FB6000BFFB685A1EFA6027
:10298C00002BF9D100BF00BF1437BD4680BC704787
:10299C0000000020D34D621080B586B000AF786087
:1029AC0000233B610023FB607B681B6803F0010381
:1029BC00002B7DD00023FB754F4BDB6903F080535C
:1029CC00002B0DD14C4BDB694B4A43F08053D36148
:1029DC00494BDB6903F08053BB60BB680123FB757B
:1029EC00464B1B6803F48073002B18D1434B1B68B8
:1029FC00424A43F480731360FDF79EFD386108E092
:102A0C00FDF79AFD02463B69D31A642B01D90323C7
:102A1C006DE03A4B1B6803F48073002BF0D0364BFF
:102A2C001B6A03F44073FB60FB68002B2ED07B68A1
:102A3C005B6803F44073FA689A4227D02E4B1B6AEA
:102A4C0023F44073FB602E4B01221A602C4B0022A6
:102A5C001A60294AFB681362FB6803F00103002B20
:102A6C0014D0FDF769FD38610AE0FDF765FD0246FB
:102A7C003B69D31A41F28832934201D9032336E0E1
:102A8C001D4B1B6A03F00203002BEED01A4B1B6A82
:102A9C0023F440727B685B68174913430B62FB7D20
:102AAC00012B05D1144BDB69134A23F08053D361FE
:102ABC007B681B6803F00203002B08D00E4B5B688D
:102ACC0023F440427B689B680B4913434B607B6843
:102ADC001B6803F01003002B08D0074B5B6823F432
:102AEC0080027B68DB68044913434B600023184663
:102AFC001837BD4680BD00BF00100240007000407A
:102B0C004004424280B582B000AF78607B68002BF5
:102B1C0001D1012353E07B6800229A627B6893F811
:102B2C005130DBB2002B06D17B68002283F8502099
:102B3C007868FDF725FC7B68022283F851207B68BE
:102B4C001B681A687B681B6822F040021A607B685D
:102B5C005A687B689B681A437B68DB681A437B68FE
:102B6C001B691A437B685B691A437B689B6903F496
:102B7C0000731A437B68DB691A437B681B6A42EA61
:102B8C0003017B689A6A7B681B680A431A607B683E
:102B9C009B691A0C7B681B6802F004025A607B6804
:102BAC001B68DA697B681B6822F40062DA617B6857
:102BBC0000225A657B68012283F8512000231846B5
:102BCC000837BD4680BD84B080B483B000AF786058
:102BDC0007F1140080E80E00002318460C37BD46A0
:102BEC0080BC04B0704780B485B000AF78607B685F
:102BFC000022A3F844204FF43F43FB60FB689AB2D9
:102C0C007B68A3F84020002318461437BD4680BCCF
:102C1C00704780B485B000AF78604FF43F43FB60E1
:102C2C007B68B3F840309AB2FB689BB2DB439BB233
:102C3C0013409AB27B68A3F840200023184614373F
:102C4C00BD4680BC704780B483B000AF78600B4643
:102C5C00FB70002318460C37BD4680BC704784B00F
:102C6C0080B483B000AF786007F1140080E80E00E8
:102C7C007B680122A3F840207B680022A3F8402047
:102C8C007B680022A3F844207B680022A3F8502024
:102C9C00002318460C37BD4680BC04B070470000BA
:102CAC0080B49BB000AF78603960002387F8673040
:102CBC007A683B681B789B0013441B889BB223F4F7
:102CCC00EC4323F07003A7F864303B68DB78032BEC
:102CDC001FD801A252F823F0F52C0008112D000882
:102CEC00272D0008032D0008B7F8643043F4007357
:102CFC00A7F8643012E0B7F8643043F4C063A7F867
:102D0C0064300BE0B7F8643043F48063A7F86430A8
:102D1C0004E0012387F8673000E000BF7A683B6865
:102D2C001B789B001A44B7F8643043F07F4343F49C
:102D3C007F0343F4004343F080039BB213807A6813
:102D4C003B681B789B0013441B889BB223F4E04325
:102D5C0023F070039AB23B681B789BB21343A7F81D
:102D6C005E307A683B681B789B001A44B7F85E307B
:102D7C0043F07F4343F47F0343F4004343F0800369
:102D8C009BB213803B681B7B002B40F049813B6856
:102D9C005B78002B00F084807B687B617B68B3F8E8
:102DAC0050309BB21A467B6913447B613B681B789D
:102DBC001A017B69134403F580633B613B68DB8834
:102DCC005B089BB25B009AB23B691A807A683B68DD
:102DDC001B789B0013441B88FB81FB8903F0400389
:102DEC00002B1BD07A683B681B789B0013441B8814
:102DFC009BB223F4E04323F07003BB817A683B68F9
:102E0C001B789B001A44BB8943F07F4343F47F0338
:102E1C0043F4004343F0C0039BB213803B68DB7860
:102E2C00012B20D07A683B681B789B0013441B88CD
:102E3C009BB223F4E04323F040033B813B8983F0B6
:102E4C0020033B817A683B681B789B001A443B89C2
:102E5C0043F07F4343F47F0343F4004343F0800388
:102E6C009BB213807FE27A683B681B789B0013440B
:102E7C001B889BB223F4E04323F040037B817A68E8
:102E8C003B681B789B001A447B8943F07F4343F4D7
:102E9C007F0343F4004343F080039BB2138062E250
:102EAC007B68FB627B68B3F850309BB21A46FB6AB6
:102EBC001344FB623B681B781A01FB6A134403F54D
:102ECC008163BB623B68DB885B089BB25B009AB298
:102EDC00BB6A1A807B687B627B68B3F850309BB20C
:102EEC001A467B6A13447B623B681B781A017B6A27
:102EFC00134403F20C433B623B681B69002B12D159
:102F0C003B6A1B889BB223F4F8439AB23B6A1A8043
:102F1C003B6A1B889BB26FEA43436FEA53439AB2F6
:102F2C003B6A1A802FE03B681B693E2B13D83B6829
:102F3C001B695B083B663B681B6903F00103002BB4
:102F4C0002D03B6E01333B663B6E9BB29B029AB246
:102F5C003B6A1A8017E03B681B695B093B663B6860
:102F6C001B6903F01F03002B02D13B6E013B3B6638
:102F7C003B6E9BB29B029BB26FEA43436FEA534397
:102F8C009AB23B6A1A807A683B681B789B001344A0
:102F9C001B88FB83FB8B03F48043002B1BD07A68CC
:102FAC003B681B789B0013441B889BB223F4E043C3
:102FBC0023F07003BB837A683B681B789B001A4430
:102FCC00BB8B43F07F4343F47F0343F4404343F014
:102FDC0080039BB213807A683B681B789B00134478
:102FEC001B889BB223F4804323F070037B837B8B81
:102FFC0083F480537B837B8B83F400537B837A68CD
:10300C003B681B789B001A447B8B43F07F4343F453
:10301C007F0343F4004343F080039BB21380A2E18F
:10302C007A683B681B789B0013441B889BB223F483
:10303C00E04323F07003A7F85C307A683B681B7898
:10304C009B001A44B7F85C3043F07F4343F47F0392
:10305C0043F4014343F080039BB213807B68BB6550
:10306C007B68B3F850309BB21A46BB6D1344BB65FA
:10307C003B681B781A01BB6D134403F580637B65B9
:10308C003B681B895B089BB25B009AB27B6D1A8014
:10309C007B683B657B68B3F850309BB21A463B6D3E
:1030AC0013443B653B681B781A013B6D134403F5D5
:1030BC008163FB643B685B895B089BB25B009AB2E3
:1030CC00FB6C1A803B685B78002B40F091807A682F
:1030DC003B681B789B0013441B88BB87BB8F03F496
:1030EC008043002B1BD07A683B681B789B001344F1
:1030FC001B889BB223F4E04323F070037B877A6830
:10310C003B681B789B001A447B8F43F07F4343F44E
:10311C007F0343F4404343F080039BB213807A68EF
:10312C003B681B789B0013441B883B873B8F03F049
:10313C004003002B1BD07A683B681B789B00134420
:10314C001B889BB223F4E04323F07003FB867A6860
:10315C003B681B789B001A44FB8E43F07F4343F47F
:10316C007F0343F4004343F0C0039BB213807A689F
:10317C003B681B789B0013441B889BB223F4804351
:10318C0023F07003BB86BB8E83F48053BB86BB8E4F
:10319C0083F40053BB867A683B681B789B001A4407
:1031AC00BB8E43F07F4343F47F0343F4004343F06F
:1031BC0080039BB213807A683B681B789B00134496
:1031CC001B889BB223F4E04323F040037B867A6890
:1031DC003B681B789B001A447B8E43F07F4343F47F
:1031EC007F0343F4004343F080039BB21380BAE0A7
:1031FC007A683B681B789B0013441B88A7F84A30FD
:10320C00B7F84A3003F48043002B1DD07A683B6832
:10321C001B789B0013441B889BB223F4E04323F0E0
:10322C007003A7F848307A683B681B789B001A44F7
:10323C00B7F8483043F07F4343F47F0343F44043F3
:10324C0043F080039BB213807A683B681B789B0029
:10325C0013441B88A7F84630B7F8463003F04003F8
:10326C00002B1DD07A683B681B789B0013441B888D
:10327C009BB223F4E04323F07003A7F844307A6840
:10328C003B681B789B001A44B7F8443043F07F43EB
:10329C0043F47F0343F4004343F0C0039BB2138019
:1032AC003B68DB78012B24D07A683B681B789B0049
:1032BC0013441B889BB223F4E04323F04003A7F88C
:1032CC004030B7F8403083F02003A7F840307A68DC
:1032DC003B681B789B001A44B7F8403043F07F439F
:1032EC0043F47F0343F4004343F080039BB2138009
:1032FC001DE07A683B681B789B0013441B889BB2CB
:10330C0023F4E04323F04003A7F842307A683B688B
:10331C001B789B001A44B7F8423043F07F4343F4C8
:10332C007F0343F4004343F080039BB213807A681D
:10333C003B681B789B0013441B889BB223F480438F
:10334C0023F07003FB877A683B681B789B001A4458
:10335C00FB8F43F07F4343F47F0343F4004343F07C
:10336C0080039BB2138097F8673018466C37BD46C4
:10337C0080BC704780B48DB000AF786039603B681A
:10338C001B7B002B40F08E803B685B78002B44D07D
:10339C007A683B681B789B0013441B88BB81BB89F4
:1033AC0003F04003002B1BD07A683B681B789B0012
:1033BC0013441B889BB223F4E04323F070037B81FE
:1033CC007A683B681B789B001A447B8943F07F43E7
:1033DC0043F47F0343F4004343F0C0039BB21380D8
:1033EC007A683B681B789B0013441B889BB223F4C0
:1033FC00E04323F040033B817A683B681B789B00D9
:10340C001A443B8943F07F4343F47F0343F4004366
:10341C0043F080039BB2138092E17A683B681B787F
:10342C009B0013441B887B827B8A03F48043002B14
:10343C001BD07A683B681B789B0013441B889BB29B
:10344C0023F4E04323F070033B827A683B681B78DB
:10345C009B001A443B8A43F07F4343F47F0343F4BD
:10346C00404343F080039BB213807A683B681B781F
:10347C009B0013441B889BB223F4804323F07003FE
:10348C00FB817A683B681B789B001A44FB8943F0EC
:10349C007F4343F47F0343F4004343F080039BB228
:1034AC0013804DE13B685B78002B40F0A5807A6877
:1034BC003B681B789B0013441B883B843B8C03F4B8
:1034CC008043002B1BD07A683B681B789B0013440D
:1034DC001B889BB223F4E04323F07003FB837A68D0
:1034EC003B681B789B001A44FB8B43F07F4343F4EF
:1034FC007F0343F4404343F080039BB213807A680C
:10350C003B681B789B0013441B88BB83BB8B03F06D
:10351C004003002B1BD07A683B681B789B0013443C
:10352C001B889BB223F4E04323F070037B837A68FF
:10353C003B681B789B001A447B8B43F07F4343F41E
:10354C007F0343F4004343F0C0039BB213807A68BB
:10355C003B681B789B0013441B889BB223F4E0430D
:10356C0023F070033B837A683B681B789B001A44FA
:10357C003B8B43F07F4343F47F0343F4004343F01E
:10358C00C0039BB213807A683B681B789B00134482
:10359C001B889BB223F4804323F07003FB827A6870
:1035AC003B681B789B001A44FB8A43F07F4343F42F
:1035BC007F0343F4004343F080039BB213807A688B
:1035CC003B681B789B0013441B889BB223F4E0439D
:1035DC0023F04003BB827A683B681B789B001A443B
:1035EC00BB8A43F07F4343F47F0343F4004343F02F
:1035FC0080039BB21380A3E07A683B681B789B0026
:10360C0013441B88FB85FB8D03F48043002B1BD0DC
:10361C007A683B681B789B0013441B889BB223F48D
:10362C00E04323F07003BB857A683B681B789B00F2
:10363C001A44BB8D43F07F4343F47F0343F4404370
:10364C0043F080039BB213807A683B681B789B0025
:10365C0013441B887B857B8D03F04003002B1BD010
:10366C007A683B681B789B0013441B889BB223F43D
:10367C00E04323F070033B857A683B681B789B0022
:10368C001A443B8D43F07F4343F47F0343F40043E0
:10369C0043F0C0039BB213807A683B681B789B0095
:1036AC0013441B889BB223F4E04323F07003FB8488
:1036BC007A683B681B789B001A44FB8C43F07F4371
:1036CC0043F47F0343F4404343F080039BB21380E5
:1036DC007A683B681B789B0013441B889BB223F4CD
:1036EC00E04323F04003BB847A683B681B789B0063
:1036FC001A44BB8C43F07F4343F47F0343F40043F1
:10370C0043F080039BB213807A683B681B789B0064
:10371C0013441B889BB223F4804323F070037B84F7
:10372C007A683B681B789B001A447B8C43F07F4380
:10373C0043F47F0343F4004343F080039BB21380B4
:10374C00002318463437BD4680BC704780B5C4B0E2
:10375C0000AF07F58873A3F58673186007F58873B7
:10376C00A3F58873196007F58873A3F588731B6834
:10377C005B78012B40F0EC8607F58873A3F5887312
:10378C001B689A6907F58873A3F588731B681B6916
:10379C009A4208D907F58873A3F588731B681B69CF
:1037AC00C7F80C3107E007F58873A3F588731B681D
:1037BC009B69C7F80C3107F58873A3F588731B68F0
:1037CC001B7B002B42D107F58873A3F588731B680C
:1037DC00596907F58873A3F588731B68DA88D7F8DD
:1037EC000C319BB207F58870A0F58670006801F06B
:1037FC0092FC07F58873A3F586731B687B6107F54C
:10380C008873A3F586731B68B3F850309BB21A46C5
:10381C007B6913447B6107F58873A3F588731B6878
:10382C001B781A017B69134403F2044207F5887371
:10383C00A3F580731A60D7F80C319AB207F5887328
:10384C00A3F580731B681A8000F034BE07F58873EB
:10385C00A3F588731B68DB78022B40F03B8407F5DB
:10386C008873A3F588731B681A6A07F58873A3F528
:10387C0088731B681B699A4240F2B88307F58873FA
:10388C00A3F586731A6807F58873A3F588731B680C
:10389C001B789B0013441B889BB223F4E04323F05A
:1038AC007003A7F85A3007F58873A3F586731A6866
:1038BC0007F58873A3F588731B681B789B001A4463
:1038CC00B7F85A3043F07F4343F47F0343F401438A
:1038DC0043F080039BB2138007F58873A3F58873BC
:1038EC001B681A6AD7F80C31D21A07F58873A3F53E
:1038FC0088731B681A6207F58873A3F586731A68B8
:10390C0007F58873A3F588731B681B789B00134419
:10391C001B889BB203F04003002B00F0B48107F529
:10392C008873A3F586731B687B6307F58873A3F50F
:10393C0088731B685B78002B6DD107F58873A3F532
:10394C0086731B68FB6207F58873A3F586731B6887
:10395C00B3F850309BB21A46FB6A1344FB6207F56E
:10396C008873A3F588731B681B781A01FB6A1344D0
:10397C0003F20C43BB62D7F80C31002B12D1BB6A9B
:10398C001B889BB223F4F8439AB2BB6A1A80BB6AB9
:10399C001B889BB26FEA43436FEA53439AB2BB6AEC
:1039AC001A805DE0D7F80C313E2B17D8D7F80C31C4
:1039BC005B08C7F80431D7F80C3103F00103002B76
:1039CC0004D0D7F804310133C7F80431D7F80431E7
:1039DC009BB29B029AB2BB6A1A8041E0D7F80C31B9
:1039EC005B09C7F80431D7F80C3103F01F03002B27
:1039FC0004D1D7F80431013BC7F80431D7F80431AE
:103A0C009BB29B029BB26FEA43436FEA53439AB259
:103A1C00BB6A1A8024E007F58873A3F588731B68CA
:103A2C005B78012B1CD107F58873A3F586731B6893
:103A3C00B3F850309BB21A467B6B13447B6307F58B
:103A4C008873A3F588731B681B781A017B6B13446E
:103A5C0003F20C433B63D7F80C319AB23B6B1A80E0
:103A6C0007F58873A3F588731B685B89A7F80A317F
:103A7C0007F58873A3F588731B685969D7F80C315F
:103A8C009BB2B7F80A2107F58870A0F5867000681C
:103A9C0001F041FB07F58873A3F588731B685A691D
:103AAC00D7F80C311A4407F58873A3F588731B6893
:103ABC005A6107F58873A3F588731B681A6A07F5B2
:103ACC008873A3F588731B681B699A420FD907F595
:103ADC008873A3F588731B681A6AD7F80C31D21A4D
:103AEC0007F58873A3F588731B681A620EE007F557
:103AFC008873A3F588731B681B6AC7F80C3107F52C
:103B0C008873A3F588731B6800221A6207F5887303
:103B1C00A3F588731B685B78002B6DD107F5887350
:103B2C00A3F586731B68FB6107F58873A3F5867391
:103B3C001B68B3F850309BB21A46FB691344FB6107
:103B4C0007F58873A3F588731B681B781A01FB694A
:103B5C00134403F20443BB61D7F80C31002B12D190
:103B6C00BB691B889BB223F4F8439AB2BB691A80D9
:103B7C00BB691B889BB26FEA43436FEA53439AB20B
:103B8C00BB691A8063E0D7F80C313E2B17D8D7F8F5
:103B9C000C315B08C7F80031D7F80C3103F0010386
:103BAC00002B04D0D7F800310133C7F80031D7F817
:103BBC0000319BB29B029AB2BB691A8047E0D7F8DE
:103BCC000C315B09C7F80031D7F80C3103F01F0337
:103BDC00002B04D1D7F80031013BC7F80031D7F8DE
:103BEC0000319BB29B029BB26FEA43436FEA534393
:103BFC009AB2BB691A802AE007F58873A3F588731B
:103C0C001B685B78012B22D107F58873A3F58673AB
:103C1C001B687B6207F58873A3F586731B68B3F882
:103C2C0050309BB21A467B6A13447B6207F588734B
:103C3C00A3F588731B681B781A017B6A134403F283
:103C4C0004433B62D7F80C319AB23B6A1A8007F5F1
:103C5C008873A3F588731B681B89A7F80A3107F5CD
:103C6C008873A3F588731B685969D7F80C319BB21C
:103C7C00B7F80A2107F58870A0F58670006801F086
:103C8C004AFA00F017BC07F58873A3F588731B6814
:103C9C005B78002B6DD107F58873A3F586731B68D1
:103CAC00FB6407F58873A3F586731B68B3F8503073
:103CBC009BB21A46FB6C1344FB6407F58873A3F59F
:103CCC0088731B681B781A01FB6C134403F20443C2
:103CDC00BB64D7F80C31002B12D1BB6C1B889BB288
:103CEC0023F4F8439AB2BB6C1A80BB6C1B889BB252
:103CFC006FEA43436FEA53439AB2BB6C1A8063E09A
:103D0C00D7F80C313E2B17D8D7F80C315B08C7F815
:103D1C00FC30D7F80C3103F00103002B04D0D7F89A
:103D2C00FC300133C7F8FC30D7F8FC309BB29B0257
:103D3C009AB2BB6C1A8047E0D7F80C315B09C7F814
:103D4C00FC30D7F80C3103F01F03002B04D1D7F84B
:103D5C00FC30013BC7F8FC30D7F8FC309BB29B021F
:103D6C009BB26FEA43436FEA53439AB2BB6C1A801F
:103D7C002AE007F58873A3F588731B685B78012B21
:103D8C0022D107F58873A3F586731B687B6507F54D
:103D9C008873A3F586731B68B3F850309BB21A4630
:103DAC007B6D13447B6507F58873A3F588731B68DB
:103DBC001B781A017B6D134403F204433B65D7F85F
:103DCC000C319AB23B6D1A8007F58873A3F5887392
:103DDC001B681B89A7F80A3107F58873A3F588734C
:103DEC001B685969D7F80C319BB2B7F80A2107F553
:103DFC008870A0F58670006801F08DF907F588735E
:103E0C00A3F588731B685A69D7F80C311A4407F567
:103E1C008873A3F588731B685A6107F58873A3F53B
:103E2C0088731B681A6A07F58873A3F588731B6877
:103E3C001B699A420FD907F58873A3F588731B6821
:103E4C001A6AD7F80C31D21A07F58873A3F5887360
:103E5C001B681A620EE007F58873A3F588731B685C
:103E6C001B6AC7F80C3107F58873A3F588731B68B8
:103E7C0000221A6207F58873A3F586731B687B64AE
:103E8C0007F58873A3F588731B685B78002B6DD1DD
:103E9C0007F58873A3F586731B68FB6307F58873B6
:103EAC00A3F586731B68B3F850309BB21A46FB6BB4
:103EBC001344FB6307F58873A3F588731B681B78A1
:103ECC001A01FB6B134403F20C43BB63D7F80C31A0
:103EDC00002B12D1BB6B1B889BB223F4F8439AB214
:103EEC00BB6B1A80BB6B1B889BB26FEA43436FEAB8
:103EFC0053439AB2BB6B1A805DE0D7F80C313E2B62
:103F0C0017D8D7F80C315B08C7F8F830D7F80C3154
:103F1C0003F00103002B04D0D7F8F8300133C7F8B5
:103F2C00F830D7F8F8309BB29B029AB2BB6B1A8070
:103F3C0041E0D7F80C315B09C7F8F830D7F80C31F1
:103F4C0003F01F03002B04D1D7F8F830013BC7F85E
:103F5C00F830D7F8F8309BB29B029BB26FEA434320
:103F6C006FEA53439AB2BB6B1A8024E007F588734F
:103F7C00A3F588731B685B78012B1CD107F588733C
:103F8C00A3F586731B68B3F850309BB21A467B6C52
:103F9C0013447B6407F58873A3F588731B681B783F
:103FAC001A017B6C134403F20C433B64D7F80C31BD
:103FBC009AB23B6C1A8007F58873A3F588731B685B
:103FCC005B89A7F80A3107F58873A3F588731B681A
:103FDC005969D7F80C319BB2B7F80A2107F58870EC
:103FEC00A0F58670006801F096F863E207F5887317
:103FFC00A3F588731B681B6AC7F80C3107F5887327
:10400C00A3F586731A6807F58873A3F588731B6884
:10401C001B789B0013441B889BB223F4E24323F0D0
:10402C007003A7F8663007F58873A3F586731A68D2
:10403C0007F58873A3F588731B681B789B001A44DB
:10404C00B7F8663043F07F4343F47F0343F40043F7
:10405C0043F080039BB2138007F58873A3F5867336
:10406C001B683B6607F58873A3F586731B68B3F86A
:10407C0050309BB21A463B6E13443B6607F588736F
:10408C00A3F588731B681B781A013B6E134403F26B
:10409C000443FB65D7F80C319AB2FB6D1A8007F517
:1040AC008873A3F588731B681B89A7F80A3107F579
:1040BC008873A3F588731B685969D7F80C319BB2C8
:1040CC00B7F80A2107F58870A0F58670006801F032
:1040DC0022F8EFE107F58873A3F586731A6807F5E4
:1040EC008873A3F588731B681B789B0013441B888B
:1040FC009BB203F04003002B00F0AA8007F58873F5
:10410C00A3F586731B68BB6707F58873A3F58873E3
:10411C001B685B78002B6DD107F58873A3F586734C
:10412C001B683B6707F58873A3F586731B68B3F8A8
:10413C0050309BB21A463B6F13443B6707F58873AC
:10414C00A3F588731B681B781A013B6F134403F2A9
:10415C000C43FB66D7F80C31002B12D1FB6E1B887D
:10416C009BB223F4F8439AB2FB6E1A80FB6E1B8849
:10417C009BB26FEA43436FEA53439AB2FB6E1A80C9
:10418C005DE0D7F80C313E2B17D8D7F80C315B0813
:10419C00C7F8F430D7F80C3103F00103002B04D02E
:1041AC00D7F8F4300133C7F8F430D7F8F4309BB2B9
:1041BC009B029AB2FB6E1A8041E0D7F80C315B0976
:1041CC00C7F8F430D7F80C3103F01F03002B04D1DF
:1041DC00D7F8F430013BC7F8F430D7F8F4309BB281
:1041EC009B029BB26FEA43436FEA53439AB2FB6E56
:1041FC001A8024E007F58873A3F588731B685B7835
:10420C00012B1CD107F58873A3F586731B68B3F8D3
:10421C0050309BB21A46BB6F1344BB6707F58873CB
:10422C00A3F588731B681B781A01BB6F134403F248
:10423C000C437B67D7F80C319AB27B6F1A8007F569
:10424C008873A3F588731B685B89A7F80A31B2E001
:10425C0007F58873A3F588731B685B78002B71D105
:10426C0007F58873A3F586731B68C7F8803007F5CC
:10427C008873A3F586731B68B3F850309BB21A464B
:10428C00D7F880301344C7F8803007F58873A3F54E
:10429C0088731B681B781A01D7F88030134403F21B
:1042AC000443FB67D7F80C31002B12D1FB6F1B8832
:1042BC009BB223F4F8439AB2FB6F1A80FB6F1B88F6
:1042CC009BB26FEA43436FEA53439AB2FB6F1A8077
:1042DC0069E0D7F80C313E2B17D8D7F80C315B08B6
:1042EC00C7F8F030D7F80C3103F00103002B04D0E1
:1042FC00D7F8F0300133C7F8F030D7F8F0309BB274
:10430C009B029AB2FB6F1A804DE0D7F80C315B0917
:10431C00C7F8F030D7F80C3103F01F03002B04D191
:10432C00D7F8F030013BC7F8F030D7F8F0309BB23B
:10433C009B029BB26FEA43436FEA53439AB2FB6F03
:10434C001A8030E007F58873A3F588731B685B78D7
:10435C00012B28D107F58873A3F586731B68C7F862
:10436C00883007F58873A3F586731B68B3F8503053
:10437C009BB21A46D7F888301344C7F8883007F533
:10438C008873A3F588731B681B781A01D7F88830DB
:10439C00134403F20443C7F88430D7F80C319AB2B3
:1043AC00D7F884301A8007F58873A3F588731B68D7
:1043BC001B89A7F80A3107F58873A3F588731B6866
:1043CC005969D7F80C319BB2B7F80A2107F58870F8
:1043DC00A0F58670006800F09EFE07F58873A3F5C3
:1043EC0088731B685B78002B2ED107F58873A3F5B7
:1043FC0086731A6807F58873A3F588731B681B7896
:10440C009B0013441B889BB223F4E04323F07003FE
:10441C00A7F8683007F58873A3F586731A6807F553
:10442C008873A3F588731B681B789B001A44B7F834
:10443C00683043F07F4343F47F0343F4004343F07D
:10444C00C0039BB2138035E007F58873A3F588731E
:10445C001B685B78012B2DD107F58873A3F5867348
:10446C001A6807F58873A3F588731B681B789B0083
:10447C0013441B889BB223F4E04323F07003A7F88A
:10448C006A3007F58873A3F586731A6807F5887385
:10449C00A3F588731B681B789B001A44B7F86A3025
:1044AC0043F07F4343F47F0343F4404343F08003E2
:1044BC009BB2138007F58873A3F586731A6807F50A
:1044CC008873A3F588731B681B789B0013441B88A7
:1044DC009BB207F58872A2F5817223F4E04323F0B6
:1044EC004003138007F58873A3F5817307F5887271
:1044FC00A2F58172128882F010021A8007F5887377
:10450C00A3F5817307F58872A2F58172128882F087
:10451C0020021A8007F58873A3F586731A6807F5CD
:10452C008873A3F588731B681B789B001A4407F5E6
:10453C008873A3F581731B8843F07F4343F47F0397
:10454C0043F4004343F080039BB2138000F09FBC04
:10455C0007F58873A3F588731B681B7B002B40F051
:10456C00AE8007F58873A3F588731B689A6907F505
:10457C008873A3F588731B681B699A4217D907F5D2
:10458C008873A3F588731B681B69C7F80C3107F592
:10459C008873A3F588731B689A69D7F80C31D21A03
:1045AC0007F58873A3F588731B689A610EE007F50D
:1045BC008873A3F588731B689B69C7F80C3107F5E2
:1045CC008873A3F588731B6800229A6107F58873BA
:1045DC00A3F586731B68C7F8943007F58873A3F5A9
:1045EC0086731B68B3F850309BB21A46D7F89430D8
:1045FC001344C7F8943007F58873A3F588731B68C8
:10460C001B781A01D7F89430134403F20C43C7F803
:10461C009030D7F80C31002B16D1D7F890301B887E
:10462C009BB223F4F8439AB2D7F890301A80D7F89B
:10463C0090301B889BB26FEA43436FEA53439AB2A4
:10464C00D7F890301A80E8E3D7F80C313E2B18D805
:10465C00D7F80C315B08C7F8EC30D7F80C3103F005
:10466C000103002B04D0D7F8EC300133C7F8EC3041
:10467C00D7F8EC309BB29B029AB2D7F890301A80E4
:10468C00CBE3D7F80C315B09C7F8EC30D7F80C3119
:10469C0003F01F03002B04D1D7F8EC30013BC7F813
:1046AC00EC30D7F8EC309BB29B029BB26FEA4343E1
:1046BC006FEA53439AB2D7F890301A80ADE307F5FE
:1046CC008873A3F588731B68DB78022B40F000829B
:1046DC0007F58873A3F588731B685B78002B40F093
:1046EC00918007F58873A3F586731B68C7F8B03003
:1046FC0007F58873A3F586731B68B3F850309BB22B
:10470C001A46D7F8B0301344C7F8B03007F58873A1
:10471C00A3F588731B681B781A01D7F8B0301344C3
:10472C0003F20443C7F8AC3007F58873A3F588731C
:10473C001B681B69002B16D1D7F8AC301B889BB2B9
:10474C0023F4F8439AB2D7F8AC301A80D7F8AC30CF
:10475C001B889BB26FEA43436FEA53439AB2D7F874
:10476C00AC301A8083E007F58873A3F588731B6857
:10477C001B693E2B20D807F58873A3F588731B683B
:10478C001B695B08C7F8E83007F58873A3F58873D5
:10479C001B681B6903F00103002B04D0D7F8E83029
:1047AC000133C7F8E830D7F8E8309BB29B029AB2D5
:1047BC00D7F8AC301A805AE007F58873A3F58873E4
:1047CC001B681B695B09C7F8E83007F58873A3F50C
:1047DC0088731B681B6903F01F03002B04D1D7F8E7
:1047EC00E830013BC7F8E830D7F8E8309BB29B02C1
:1047FC009BB26FEA43436FEA53439AB2D7F8AC309B
:10480C001A8034E007F58873A3F588731B685B780E
:10481C00012B2CD107F58873A3F586731B68C7F899
:10482C00B83007F58873A3F586731B68B3F850305E
:10483C009BB21A46D7F8B8301344C7F8B83007F50E
:10484C008873A3F588731B681B781A01D7F8B830E6
:10485C00134403F20443C7F8B43007F58873A3F587
:10486C0088731B681B699AB2D7F8B4301A8007F5A5
:10487C008873A3F586731B68C7F8A83007F588738F
:10488C00A3F588731B685B78002B40F0918007F5CB
:10489C008873A3F586731B68C7F8A03007F5887377
:1048AC00A3F586731B68B3F850309BB21A46D7F841
:1048BC00A0301344C7F8A03007F58873A3F58873AC
:1048CC001B681B781A01D7F8A030134403F20C4371
:1048DC00C7F89C3007F58873A3F588731B681B69B0
:1048EC00002B16D1D7F89C301B889BB223F4F843CD
:1048FC009AB2D7F89C301A80D7F89C301B889BB2A0
:10490C006FEA43436FEA53439AB2D7F89C301A804C
:10491C007CE007F58873A3F588731B681B693E2B35
:10492C0020D807F58873A3F588731B681B695B088F
:10493C00C7F8E43007F58873A3F588731B681B6907
:10494C0003F00103002B04D0D7F8E4300133C7F88F
:10495C00E430D7F8E4309BB29B029AB2D7F89C3083
:10496C001A8053E007F58873A3F588731B681B69DD
:10497C005B09C7F8E43007F58873A3F588731B68E7
:10498C001B6903F01F03002B04D1D7F8E430013B63
:10499C00C7F8E430D7F8E4309BB29B029BB26FEAC5
:1049AC0043436FEA53439AB2D7F89C301A802DE0F8
:1049BC0007F58873A3F588731B685B78012B25D1E9
:1049CC0007F58873A3F586731B68B3F850309BB258
:1049DC001A46D7F8A8301344C7F8A83007F58873DF
:1049EC00A3F588731B681B781A01D7F8A8301344F9
:1049FC0003F20C43C7F8A43007F58873A3F588734A
:104A0C001B681B699AB2D7F8A4301A8007F5887313
:104A1C00A3F588731B68DB69002B00F0FE8107F59A
:104A2C008873A3F586731A6807F58873A3F58873E2
:104A3C001B681B789B0013441B88A7F89A30B7F8A7
:104A4C009A3003F48043002B05D0B7F89A3003F06A
:104A5C004003002B0DD1B7F89A3003F48043002BA0
:104A6C0040F0DB81B7F89A3003F04003002B40F0A4
:104A7C00D48107F58873A3F586731A6807F58873D4
:104A8C00A3F588731B681B789B0013441B889BB28F
:104A9C0023F4E04323F07003A7F8983007F58873EC
:104AAC00A3F586731A6807F58873A3F588731B68DA
:104ABC001B789B001A44B7F8983043F07F4343F4BB
:104ACC007F0343F4004343F0C0039BB21380A4E183
:104ADC0007F58873A3F588731B68DB78012B40F00E
:104AEC009A8107F58873A3F588731B689A6907F593
:104AFC008873A3F588731B681B699A4217D907F54D
:104B0C008873A3F588731B681B69C7F80C3107F50C
:104B1C008873A3F588731B689A69D7F80C31D21A7D
:104B2C0007F58873A3F588731B689A610EE007F587
:104B3C008873A3F588731B689B69C7F80C3107F55C
:104B4C008873A3F588731B6800229A6107F5887334
:104B5C00A3F588731B685B78002B78D107F58873F5
:104B6C00A3F586731B68C7F8D03007F58873A3F5D7
:104B7C0086731B68B3F850309BB21A46D7F8D03006
:104B8C001344C7F8D03007F58873A3F588731B68F6
:104B9C001B781A01D7F8D030134403F20443C7F83A
:104BAC00CC30D7F80C31002B16D1D7F8CC301B8871
:104BBC009BB223F4F8439AB2D7F8CC301A80D7F8CA
:104BCC00CC301B889BB26FEA43436FEA53439AB2D3
:104BDC00D7F8CC301A806BE0D7F80C313E2B18D8B4
:104BEC00D7F80C315B08C7F8E030D7F80C3103F07C
:104BFC000103002B04D0D7F8E0300133C7F8E030C4
:104C0C00D7F8E0309BB29B029AB2D7F8CC301A801E
:104C1C004EE0D7F80C315B09C7F8E030D7F80C310F
:104C2C0003F01F03002B04D1D7F8E030013BC7F889
:104C3C00E030D7F8E0309BB29B029BB26FEA434363
:104C4C006FEA53439AB2D7F8CC301A8030E007F5AC
:104C5C008873A3F588731B685B78012B28D107F543
:104C6C008873A3F586731B68C7F8D83007F588736B
:104C7C00A3F586731B68B3F850309BB21A46D7F86D
:104C8C00D8301344C7F8D83007F58873A3F5887368
:104C9C001B681B781A01D7F8D830134403F204436D
:104CAC00C7F8D430D7F80C319AB2D7F8D4301A8070
:104CBC0007F58873A3F586731B68C7F8C83007F52A
:104CCC008873A3F588731B685B78002B78D107F584
:104CDC008873A3F586731B68C7F8C03007F5887313
:104CEC00A3F586731B68B3F850309BB21A46D7F8FD
:104CFC00C0301344C7F8C03007F58873A3F5887328
:104D0C001B681B781A01D7F8C030134403F20C430C
:104D1C00C7F8BC30D7F80C31002B16D1D7F8BC3003
:104D2C001B889BB223F4F8439AB2D7F8BC301A8094
:104D3C00D7F8BC301B889BB26FEA43436FEA5343EE
:104D4C009AB2D7F8BC301A8067E0D7F80C313E2BFA
:104D5C0018D8D7F80C315B08C7F8DC30D7F80C3111
:104D6C0003F00103002B04D0D7F8DC300133C7F873
:104D7C00DC30D7F8DC309BB29B029AB2D7F8BC304F
:104D8C001A804AE0D7F80C315B09C7F8DC30D7F849
:104D9C000C3103F01F03002B04D1D7F8DC30013B9E
:104DAC00C7F8DC30D7F8DC309BB29B029BB26FEAC1
:104DBC0043436FEA53439AB2D7F8BC301A802CE0C5
:104DCC0007F58873A3F588731B685B78012B24D1D6
:104DDC0007F58873A3F586731B68B3F850309BB244
:104DEC001A46D7F8C8301344C7F8C83007F588738B
:104DFC00A3F588731B681B781A01D7F8C8301344C5
:104E0C0003F20C43C7F8C430D7F80C319AB2D7F878
:104E1C00C4301A8001E001233AE007F58873A3F54A
:104E2C0086731A6807F58873A3F588731B681B785B
:104E3C009B0013441B889BB223F4804323F0700324
:104E4C00A7F88E30B7F88E3083F48053A7F88E30E5
:104E5C00B7F88E3083F40053A7F88E3007F58873BB
:104E6C00A3F586731A6807F58873A3F588731B6816
:104E7C001B789B001A44B7F88E3043F07F4343F401
:104E8C007F0343F4004343F080039BB21380002361
:104E9C00184607F58877BD4680BD80B485B000AF55
:104EAC00786039603B685B78002B20D07A683B686F
:104EBC001B789B0013441B889BB223F4E04323F024
:104ECC004003BB81BB8983F01003BB817A683B68CC
:104EDC001B789B001A44BB8943F07F4343F47F0348
:104EEC0043F4004343F080039BB213801FE07A68C5
:104EFC003B681B789B0013441B889BB223F48043B4
:104F0C0023F07003FB81FB8983F48053FB817A6867
:104F1C003B681B789B001A44FB8943F07F4343F4A6
:104F2C007F0343F4004343F080039BB213800023C0
:104F3C0018461437BD4680BC704780B487B000AFAC
:104F4C00786039603B681B7B002B40F09D803B6890
:104F5C005B78002B4CD07A683B681B789B00134421
:104F6C001B883B823B8A03F04003002B1BD07A68E2
:104F7C003B681B789B0013441B889BB223F4E043D3
:104F8C0023F07003FB817A683B681B789B001A4402
:104F9C00FB8943F07F4343F47F0343F4004343F026
:104FAC00C0039BB213803B68DB78012B6CD07A6812
:104FBC003B681B789B0013441B889BB223F4E04393
:104FCC0023F04003BB81BB8983F02003BB817A684B
:104FDC003B681B789B001A44BB8943F07F4343F426
:104FEC007F0343F4004343F080039BB213804BE0F8
:104FFC007A683B681B789B0013441B88FB82FB8AF6
:10500C0003F48043002B1BD07A683B681B789B0011
:10501C0013441B889BB223F4E04323F07003BB8240
:10502C007A683B681B789B001A44BB8A43F07F4329
:10503C0043F47F0343F4404343F080039BB213805B
:10504C007A683B681B789B0013441B889BB223F443
:10505C00804323F070037B827B8A83F480537B82B2
:10506C007B8A83F400537B827A683B681B789B00B5
:10507C001A447B8A43F07F4343F47F0343F4004399
:10508C0043F080039BB21380002318461C37BD46A7
:10509C0080BC704780B483B000AF78600B46FB7067
:1050AC00FB78002B03D17B688022A3F84C200023D3
:1050BC0018460C37BD4680BC704780B483B000AF37
:1050CC007860002318460C37BD4680BC704780B40E
:1050DC0083B000AF7860002318460C37BD4680BC07
:1050EC00704780B485B000AF78607B68B3F844300B
:1050FC009BB2FB60FB6818461437BD4680BC7047FA
:10510C0080B483B000AF78603960002318460C3748
:10511C00BD4680BC704780B48DB000AFF860B960FC
:10512C0011461A460B46FB801346BB80BB880133E5
:10513C005B083B62FB68FB61BB687B62FB885A00C7
:10514C00FB69134403F58063BB623B6AFB621EE0A0
:10515C007B6A1B78BB617B6A01337B627B6A1B7841
:10516C009BB21B029BB21A46BB6913437B617B69E2
:10517C009AB2BB6A1A80BB6A0233BB62BB6A023347
:10518C00BB627B6A01337B62FB6A013BFB62FB6A9D
:10519C00002BDDD100BF00BF3437BD4680BC70474B
:1051AC0080B48BB000AFF860B96011461A460B465C
:1051BC00FB801346BB80BB885B089BB2BB61FB6862
:1051CC007B61BB68FB61FB885A007B69134403F568
:1051DC0080633B62BB697B621BE03B6A1B889BB2B2
:1051EC003B613B6A02333B623B69DAB2FB691A7082
:1051FC00FB690133FB613B691B0ADAB2FB691A706C
:10520C00FB690133FB613B6A02333B627B6A013B06
:10521C007B627B6A002BE0D1BB8803F001039BB25D
:10522C00002B07D03B6A1B889BB23B613B69DAB20F
:10523C00FB691A7000BF2C37BD4680BC704780B527
:10524C0084B000AF78600B46FB700023FB737B6867
:10525C001B7C002B15D14FF400730222812178683E
:10526C0001F031FE7B680122DA624FF400730222F6
:10527C000121786801F027FE7B680122C3F86C21BC
:10528C0012E0402302228121786801F01CFE7B6829
:10529C000122DA62402302220121786801F013FE18
:1052AC007B680122C3F86C210823032282217868D1
:1052BC0001F009FE7B6801221A644FF4077001F0BB
:1052CC0029FF02467B68C3F8B8227B68D3F8B83252
:1052DC00002B02D10123FB7326E07B68D3F8B83294
:1052EC00BB607B68D3F8BC321B689847BB68002254
:1052FC00C3F81422BB680022C3F818227B681B7CFD
:10530C00002B09D1BB68D3F804224FF400730121A0
:10531C00786801F0C9FE07E0BB68D3F8042240238B
:10532C000121786801F0C0FEFB7B18461037BD46A2
:10533C0080BD80B584B000AF78600B46FB70002355
:10534C00FB738121786801F0E4FD7B680022DA624E
:10535C000121786801F0DDFD7B680022C3F86C2127
:10536C008221786801F0D5FD7B6800221A647B6885
:10537C00D3F8B832002B0ED07B68D3F8BC325B6804
:10538C0098477B68D3F8B832184601F0CFFE7B689B
:10539C000022C3F8B822FB7B18461037BD4680BDEF
:1053AC0080B586B000AF786039607B68D3F8B832CE
:1053BC003B610023FB730023BB810023FB753B681F
:1053CC001B7803F06003002B39D0202B7FD13B6876
:1053DC00DB88002B29D03B681B785BB2002B11DAE1
:1053EC007B68D3F8BC329B683A68507839693A6864
:1053FC00D288984739693B68DB881A46786801F08F
:10540C00DAF96BE03B685A783B6983F800223B6819
:10541C00DB88DAB23B6983F8012239693B68DB88A7
:10542C001A46786801F0F5F958E07B68D3F8BC327D
:10543C009B683A6850780022396898474EE03B6880
:10544C005B780B2B2ED00B2B38DC002B02D00A2BCD
:10545C0014D033E07B6893F89C32032B07D107F10F
:10546C000C0302221946786801F0A5F92EE0396880
:10547C00786801F036F90223FB7527E07B6893F816
:10548C009C32032B07D107F10F03012219467868D0
:10549C0001F091F91AE03968786801F022F90223D9
:1054AC00FB7513E07B6893F89C32032B0DD03968A5
:1054BC00786801F016F90223FB7506E03968786804
:1054CC0001F00FF90223FB7500E000BF06E039681C
:1054DC00786801F006F90223FB7500BFFB7D1846C6
:1054EC001837BD4680BD80B584B000AF78600B46E0
:1054FC00FB707B68D3F8B832FB607B68D3F8C032A2
:10550C00BB607B68D3F8B832002B3AD0FA78796854
:10551C0013469B0013449B000B441C331B68002B4D
:10552C0029D0FA78796813469B0013449B000B44EE
:10553C001C331A68F978B8680B469B000B44DB00E7
:10554C00034438331B68B2FBF3F101FB03F3D31AAA
:10555C00002B10D1FA78796813469B0013449B00FA
:10556C000B441C3300221A60F9780023002278685F
:10557C0001F077FD03E0FB680022C3F8142200233E
:10558C0000E0022318461037BD4680BD80B584B0BC
:10559C0000AF78600B46FB707B68D3F8B832FB60C9
:1055AC00FB781946786801F0A2FD0246FB68C3F847
:1055BC000C227B68D3F8B832002B0DD07B68D3F863
:1055CC00BC32DB68FA68D2F80402FA6802F503729E
:1055DC0011469847002300E0022318461037BD46B9
:1055EC0080BD80B584B000AF78607B68D3F8B832EA
:1055FC00FB607B68D3F8BC32002B15D0FB6893F8AA
:10560C000032FF2B10D07B68D3F8BC329B68FA6851
:10561C0092F80002F968FA6892F8012292B298475F
:10562C00FB68FF2283F80022002318461037BD4682
:10563C0080BD000080B483B000AF78607B684322EB
:10564C001A80034B18460C37BD4680BC704700BF10
:10565C009400002080B483B000AF78607B68432254
:10566C001A80034B18460C37BD4680BC704700BFF0
:10567C005000002080B483B000AF78607B68432278
:10568C001A80034B18460C37BD4680BC704700BFD0
:10569C00D800002080B483B000AF78607B680A2209
:1056AC001A80034B18460C37BD4680BC704700BFB0
:1056BC000C00002080B485B000AF78603960022304
:1056CC00FB733B68002B05D07B683A68C3F8BC229F
:1056DC000023FB73FB7B18461437BD4680BC704718
:1056EC0080B487B000AFF860B9601346FB80FB68EC
:1056FC00D3F8B8327B617B69BA68C3F80822FA88A0
:10570C007B69C3F81022002318461C37BD4680BCA9
:10571C00704780B485B000AF786039607B68D3F88F
:10572C00B832FB60FB683A68C3F8042200231846C1
:10573C001437BD4680BC704780B584B000AF78602C
:10574C007B68D3F8B832FB607B68D3F8B832002B97
:10575C0017D07B681B7C002B09D1FB68D3F8042283
:10576C004FF400730121786801F09EFC07E0FB68A0
:10577C00D3F8042240230121786801F095FC002322
:10578C0000E0022318461037BD4680BD80B584B0BA
:10579C0000AFF860B9601346FB71FB68002B01D1B8
:1057AC0002231AE0FB68D3F8B432002B03D0FB6859
:1057BC000022C3F8B422BB68002B03D0FB68BA6884
:1057CC00C3F8B022FB68012283F89C22FB68FA79AB
:1057DC001A70F86801F002FB002318461037BD461A
:1057EC0080BD80B485B000AF786039600023FB7356
:1057FC003B68002B06D07B683A68C3F8B4220023C0
:10580C00FB7301E00223FB73FB7B18461437BD4688
:10581C0080BC704780B582B000AF7860786801F0CA
:10582C0037FB002318460837BD4680BD80B483B0D3
:10583C0000AF7860002318460C37BD4680BC70471B
:10584C0080B584B000AF78600B46FB700223FB730D
:10585C007B68D3F8B432002B0CD07B68D3F8B4320D
:10586C001B68FA781146786898470346002B01D1DB
:10587C000023FB73FB7B18461037BD4680BD80B5FB
:10588C0082B000AF78600B46FB707B68D3F8B43203
:10589C005B68FA78114678689847002318460837F1
:1058AC00BD4680BD80B582B000AF786039607B6842
:1058BC0003F52A733968184600F0D7FE7B6801227D
:1058CC00C3F894227B68B3F8AE321A467B68C3F8EF
:1058DC0098227B6893F8A83203F01F03022B16D092
:1058EC00022B1CD8002B02D0012B08D017E07B68B0
:1058FC0003F52A731946786800F0CAF91AE07B6838
:10590C0003F52A731946786800F02CFA12E07B68CC
:10591C0003F52A731946786800F06CFA0AE07B6884
:10592C0093F8A83223F07F03DBB21946786801F0B4
:10593C000FFB00BF002318460837BD4680BD80B55D
:10594C0086B000AFF8600B467A60FB72FB7A002BD6
:10595C004BD1FB6803F5AA737B61FB68D3F89432D7
:10596C00032B34D17B69DA687B691B699A4219D99C
:10597C007B69DA687B691B69D21A7B69DA607B699F
:10598C00DA687B691B699A4203D27B69DB689BB23C
:10599C0002E07B691B699BB21A467968F86800F0D3
:1059AC0056FF38E0FB68D3F8B4321B69002B0AD0E1
:1059BC00FB6893F89C32032B05D1FB68D3F8B43207
:1059CC001B69F8689847F86800F053FF23E0FB6800
:1059DC00D3F89432052B1ED1FB680022C3F8942215
:1059EC000021F86801F0B4FA15E0FB68D3F8B43282
:1059FC009B69002B0DD0FB6893F89C32032B08D1CC
:105A0C00FB68D3F8B4329B69FA7A1146F868984768
:105A1C0001E0022300E0002318461837BD4680BD84
:105A2C0080B586B000AFF8600B467A60FB72FB7AEB
:105A3C00002B7FD1FB6814337B61FB68D3F8943265
:105A4C00022B5CD17B69DA687B691B699A4215D998
:105A5C007B69DA687B691B69D21A7B69DA607B69BE
:105A6C00DB689BB21A467968F86800F0C0FE002328
:105A7C0000220021F86801F017FB4EE07B699B685F
:105A8C007A691269B3FBF2F101FB02F29B1A002B4B
:105A9C001CD17B699A687B691B699A4216D37B6916
:105AAC009A68FB68D3F898329A420FD200220021F0
:105ABC00F86800F09CFEFB680022C3F898220023D3
:105ACC0000220021F86801F0EFFA26E0FB68D3F819
